S012000042434D5F53656E6465722E7372656380
S11300000C942A000C9447000C9447000C9447006D
S11300100C9447000C9447000C9447000C94470040
S11300200C9447000C9447000C9447000C94470030
S11300300C94DA010C9435020C945E020C94870241
S11300400C9447000C9447000C9447000C94470010
S11300500C94470011241FBECFE5D8E0DEBFCDBF0E
S113006010E0A0E6B0E0EEE2F6E002C005900D92EA
S1130070A237B107D9F721E0A2E7B0E001C01D9291
S1130080A938B207E1F70E9493010C9415030C946C
S1130090000082E080937F00809160008F5F8093F6
S11300A060000895CF93DF93CDB7DEB729970FB6DD
S11300B0F894DEBF0FBECDBF9C0186E0E1E6F0E020
S11300C0DE01119601900D928A95E1F71F8280E876
S11300D088871986F9019181913041F018F09230A6
S11300E041F00AC01A8281E08F8309C081E08A83CB
S11300F006C082E08A8303C081E080937500F90121
S11301008081803A19F0813A31F00AC0CE0101961B
S11301100E94B50208C0CE0107960E94030203C0E4
S113012081E0809375008091750029960FB6F8944C
S1130130DEBF0FBECDBFDF91CF910895CF93DF9384
S1130140EC018091780081113AC08881803A19F0DD
S1130150813A61F016C089E490E00E94B00288EE12
S113016092E090937400809373000EC089E490E051
S11301700E942A028FE292E09093740080937300AD
S113018003C081E080937200E981FA818B819C81B4
S1130190E80FF91F34978AE580838B819C81E9817C
S11301A0FA81E80FF91F3397049790838B819C8120
S11301B0E981FA81E80FF91F329784508083E9813D
S11301C0FA818B819C81E80FF91F31978091790026
S11301D0808340917800842F90E02B813C818217AA
S11301E0930798F5433078F449815A81840F951F19
S11301F0820F931FDC011497E0917300F091740057
S11302008C9109951DC0215031098217930761F41F
S113021029813A81D901A80FB91FE0917300F091A7
S113022074008C9109950CC0A981BA818A0F9B1F17
S1130230DC011397E0917300F09174008C9109959F
S1130240809178008F5F8093780085E0FE01AAE7B3
S1130250B0E001900D928A95E1F780917200DF91F0
S1130260CF91089580917F00823001F52091600044
S113027030E080917D0090917E0004972817390723
S113028070F480916000E0917B00F0917C00E80FB5
S1130290F11D909179008081890F8093790081E02C
S11302A080937F008AE790E00E949E002091600086
S11302B030E080917D0090917E00019728173907E6
S11302C081F410927F00109278008FEF8093600089
S11302D010927900E0917600F0917700309709F060
S11302E0099580E0089590937700809376000895AF
S11302F010928100109280001092820080918200FE
S1130300863380F490E2E0918200F0E0ED57FF4FF5
S11303109083809182008F5F80938200809182001D
S1130320863388F30895CF93DF93CDB7DEB72D9747
S11303300FB6F894DEBF0FBECDBF86E0E7E6F0E06F
S1130340DE01119601900D928A95E1F781EA8F837F
S1130350188685E0EDE6F0E0DE01199601900D9235
S11303608A95E1F7CE0101960E94B50288E791E0F3
S11303700E947301789411E080918100813089F4A6
S11303808091800081110AC0CE0107960E9452001C
S1130390CE0109960E949E00109380000E943201B3
S11303A0EBCF8111E9CF83E890E00E94F40210932F
S11303B08100E2CF1F920F920FB60F9211242F9358
S11303C03F934F935F936F937F938F939F93AF93D9
S11303D0BF93EF93FF93E0918101F09182013097F5
S11303E009F00995FF91EF91BF91AF919F918F9182
S11303F07F916F915F914F913F912F910F900FBE1D
S11304000F901F901895FC018081811106C087B35D
S11304108F7487BBBE9A6C9807C0813029F487B368
S1130420806B87BBBE986C9A8DB18F779181892B35
S11304308DB96E9A9DB1828183709C7F982B9DB9F2
S11304409EB18281282F26952695892F8E7F822B17
S11304508EB90895909382018093810108958FB994
S11304606F9902C0779BFECF08951F920F920FB62B
S11304700F9211242F933F934F935F936F937F9326
S11304808F939F93AF93BF93EF93FF93E091850175
S1130490F0918601309709F00995FF91EF91BF9192
S11304A0AF919F918F917F916F915F914F913F9108
S11304B02F910F900FBE0F901F9018951F920F92BF
S11304C00FB60F9211242F933F934F935F936F9323
S11304D07F938F939F93AF93BF93EF93FF93E09199
S11304E08301F0918401309709F00995FF91EF9110
S11304F0BF91AF919F918F917F916F915F914F9138
S11305003F912F910F900FBE0F901F9018951F923F
S11305100F920FB60F9211242F933F934F935F9333
S11305206F937F938F939F93AF93BF93EF93FF93B7
S1130530E0918701F0918801309709F00995FF91C6
S1130540EF91BF91AF919F918F917F916F915F9147
S11305504F913F912F910F900FBE0F901F901895C0
S113056090938801809387010895FC01599A8181B1
S1130570813051F018F0823069F013C0539A8581AC
S1130580813079F4569A0DC0549A8581813049F4AA
S1130590579A07C0539A549A8581813011F4569A18
S11305A0579A8AB1928194708B7F892B8AB980B5CE
S11305B092819370990F2081292B9381892B8068D4
S11305C09481892B822B80BD10BC8FEC89B908954E
S11305D0569902C05D9BFECF8CB90895579902C00D
S11305E05F9BFECF8CB10895EF92FF920F931F9300
S11305F0CF937C010E94EE02F70180838D3061F07D
S1130600C0E0CF5F87010C0F111D0E94EE02F801BC
S113061080838D30B1F701C08701F8011082CF913A
S11106201F910F91FF90EF900895F894FFCF73
S113062EFF000003000001000103000000A183008D
S105063EFE00B8
S9030000FC
