:100000000C942A000C9447000C9447000C94470071
:100010000C9447000C94CF000C9447000C944700BC
:100020000C9447000C9447000C9447000C94470034
:100030000C9447000C9447000C9447000C94470024
:100040000C9447000C9447000C9447000C94470014
:100050000C94470011241FBECFE5D8E0DEBFCDBF12
:1000600010E0A0E6B0E0ECE9F3E002C005900D92EC
:10007000AC37B107D9F720E0ACE7B0E001C01D9282
:10008000AC39B207E1F70E9449000C94CC010C9402
:1000900000008FB780688FBF8FEF8ABB8AE790E040
:1000A0000E94F20082E790E00E9412018AE690E04E
:1000B0000E94120182E690E00E9412010E946D01EE
:1000C000FDCFFC01892BC9F180818130A1F018F0AE
:1000D000823019F134C093B78181892B83BF99B7DE
:1000E0008281892B89BF838190E0909397008093D0
:1000F000960080E008958EB59FB52181822B9FBD2B
:100100008EBD99B78281892B89BF838190E09093BE
:100110009B0080939A0080E0089595B58181892B9A
:1001200085BD99B78281892B89BF838190E09093A7
:1001300099008093980080E0089581E0089581E01F
:100140000895813071F018F08230E9F026C082B74E
:10015000682B62BF93B780919600892B83BF80E0A4
:1001600008958CB59DB5682B792B7DBD6CBD2EB5E2
:100170003FB580919A0090919B00822B932B9FBD5D
:100180008EBD80E0089584B5682B64BD95B58091DF
:100190009800892B85BD80E0089581E008951F9225
:1001A0000F920FB60F9211248F939F9381E090E0EE
:1001B00090936100809360009F918F910F900FBE8C
:1001C0000F901F9018959BB381E089278BBB0895F2
:1001D0009BB384E089278BBB08959BB382E089277A
:1001E0008BBB0895CF93DF9300D000D0CDB7DEB79F
:1001F000009781F0FC01808180937D0089831A82C1
:1002000080E48B8384E08C83CE0101960E946100A0
:1002100080E001C082E00F900F900F900F90DF916F
:10022000CF9108950097E9F0FC0180917C00A82F00
:10023000B0E0AA0FBB1FAA0FBB1FAA0FBB1FA2587B
:10024000BF4F98E001900D929A95E1F78F5F8093F0
:100250007C0060E070E080917D000E94A10080E061
:10026000089582E00895CF93DF93BC0120917C0034
:10027000222381F190E0A92FB0E0FD01EE0FFF1FD6
:10028000EE0FFF1FEE0FFF1FE258FF4F4681578111
:1002900046175707D1F4C22FD0E0DF01CC0FDD1F86
:1002A000CC0FDD1FCC0FDD1FCA58DF4F88E0FE01E9
:1002B00001900D928A95E1F71F821E8219821882A1
:1002C0001B821A82215020937C009F5F20917C002A
:1002D000921788F2DF91CF910895EF92FF920F93DA
:1002E0001F93CF938091600090916100019709F076
:1002F00048C0EEE7F0E08481958101969583848380
:10030000848595850196958784878489958901964A
:10031000958B848B109261001092600080917C001C
:10032000882359F1C0E00C2F10E0F801EE0FFF1FF9
:10033000EE0FFF1FEE0FFF1FE258FF4F24813581A4
:10034000808191812817390789F47F010680F78120
:10035000E02D0995F7011582148282819381892B02
:1003600029F4F701868197810E943301CF5F809144
:100370007C00C817C0F280E009C08AE007C08AE0AC
:1003800005C080917C008823D1F3CCCFCF911F9101
:0C0390000F91FF90EF900895F894FFCFBC
:10039C000100EE0201000000ED00F401010000007C
:0C03AC00E800FA0001000000E30002017C
:00000001FF
