S014000042434D5F52656365697665722E73726563AA
S11300000C942A000C9447000C9447000C9447006D
S11300100C9447000C9447000C9447000C94470040
S11300200C9447000C9447000C9447000C94470030
S11300300C94FE000C9459010C9482010C94AB01B5
S11300400C9447000C9447000C9447000C94470010
S11300500C94470011241FBECFE5D8E0DEBFCDBF0E
S113006010E0A0E6B0E0ECE1F4E002C005900D92EF
S1130070A836B107D9F720E0A8E6B0E001C01D9288
S1130080AD37B207E1F70E94EF000C940C020C9418
S1130090000081E080936A0008951F93CF93DF935B
S11300A0CDB7DEB729970FB6F894DEBF0FBECDBF2C
S11300B09C0186E0E2E6F0E0DE01119601900D92EB
S11300C08A95E1F71F8280E888871986F901918172
S11300D0913021F028F0923041F00BC010E00AC0BA
S11300E01A8281E08F8310E005C082E08A8310E0E9
S11300F001C011E0F9018081803A19F0813A31F0B0
S11301000AC0CE0101960E94D90106C0CE0107960D
S11301100E94270101C011E0812F29960FB6F8949F
S1130120DEBF0FBECDBFDF91CF911F910895EBE6E7
S1130130F0E054834383728361838083803A19F0AF
S1130140813A39F00CC089E490E00E94D40180E047
S1130150089589E490E00E94500180E0089581E0D0
S113016008950F931F93CF93DF93EC018881803A16
S113017019F0813A31F018C089E490E00E94D4016A
S113018016C089E490E00E945001809169000981C1
S11301901A81080F111D0E945501F8018083E9811D
S11301A0FA81808182BF03C081E0809368008091DE
S11301B069008F5F8093690080916800DF91CF911F
S11301C01F910F91089580916A00813021F48BE68C
S11301D090E00E94B10010926A0080E0089580E6E9
S11301E090E00E944D00789445E050E068E770E0AC
S11301F081EA0E9497000E94E300FDCF1F920F92B4
S11302000FB60F9211242F933F934F935F936F93E5
S11302107F938F939F93AF93BF93EF93FF93E0915B
S11302207000F0917100309709F00995FF91EF91FA
S1130230BF91AF919F918F917F916F915F914F91FA
S11302403F912F910F900FBE0F901F901895FC01B6
S113025081E084BB8081811106C087B38F7487BB22
S1130260BE9A6C9807C0813029F487B3806B87BB32
S1130270BE986C9A8DB18F779181892B8DB96E9AC6
S11302809DB1828183709C7F982B9DB99EB18281A0
S1130290282F26952695892F8E7F822B8EB9089537
S11302A0909371008093700008958FB184BD8FB1D5
S11302B008951F920F920FB60F9211242F933F931C
S11302C04F935F936F937F938F939F93AF93BF935A
S11302D0EF93FF93E0917400F0917500309709F06B
S11302E00995FF91EF91BF91AF919F918F917F916C
S11302F06F915F914F913F912F910F900FBE0F908F
S11303001F9018951F920F920FB60F9211242F93DE
S11303103F934F935F936F937F938F939F93AF9389
S1130320BF93EF93FF93E0917200F09173003097C5
S113033009F00995FF91EF91BF91AF919F918F9132
S11303407F916F915F914F913F912F910F900FBECD
S11303500F901F9018951F920F920FB60F921124B1
S11303602F933F934F935F936F937F938F939F93B9
S1130370AF93BF93EF93FF93E0917600F0917700F2
S1130380309709F00995FF91EF91BF91AF919F913B
S11303908F917F916F915F914F913F912F910F902A
S11303A00FBE0F901F901895909375008093740062
S11303B00895FC01599A8181813051F018F08230FE
S11303C069F013C0539A8581813079F4569A0DC02F
S11303D0549A8581813049F4579A07C0539A549AA4
S11303E08581813011F4569A579A8AB1928194701A
S11303F08B7F892B8AB980B592819370990F208164
S1130400292B9381892B80689481892B822B80BD31
S10F041010BC8FEC89B90895F894FFCF5C
S10B041CA1010000030000012E
S9030000FC
