:100000000C942A000C9447000C9447000C94470071
:100010000C9447000C9447000C9447000C94470044
:100020000C9447000C9447000C9447000C94470034
:100030000C94B5010C9414020C943D020C946602CD
:100040000C9447000C9447000C9447000C94470014
:100050000C94470011241FBECFE5D8E0DEBFCDBF12
:1000600010E0A0E6B0E0E4EBF5E002C005900D92F0
:10007000AE36B107D9F720E0AEE6B0E001C01D9280
:10008000AC39B207E1F70E9462010C94D8020C94DB
:1000900000001F93CF93DF93CDB7DEB729970FB63C
:1000A000F894DEBF0FBECDBF9C0186E0E2E6F0E033
:1000B000DE01119601900D928A95E1F71F8280E88A
:1000C00088871986F9019181913021F028F09230CA
:1000D00041F00BC010E00AC01A8281E08F8310E06B
:1000E00005C082E08A8310E001C011E0F90180813F
:1000F000803A19F0813A31F00AC0CE0101960E948F
:10010000990206C0CE0107960E94DE0101C011E0EF
:10011000812F29960FB6F894DEBF0FBECDBFDF91B9
:10012000CF911F910895CF9380917900823001F58E
:100130002091600030E080917700909178000197E5
:1001400028173907A8F480916000833088F08091E7
:100150006000E0917500F0917600E80FF11D90913C
:1001600072008081890F8093720081E08093790012
:100170002091600030E080917700909178000197A5
:100180002817390701F580916000E0917500F09122
:100190007600E80FF11DC1E0908180917200981304
:1001A00001C0C0E010927900109271008FEF80932F
:1001B000600010927200E0916F00F0917000309733
:1001C00019F0099501C0C0E08C2FCF910895E4E7A4
:1001D000F0E054834383728361838083803A19F013
:1001E000813A39F00CC081E491E00E94940280E0F1
:1001F000089581E491E00E94070280E0089581E083
:100200000895CF93DF93EC0181E080937300809198
:10021000730082BF8881803A19F0813A41F00EC0A4
:1002200081E491E00E949402E2EDF2E00BC081E4EF
:1002300091E00E940702ECE0F2E004C081E08093CC
:100240006E0018C02091710030E04B815C81241752
:10025000350780F480916E0081110CC00980DA812D
:10026000C02DC20FD31F09958883809171008F5FC5
:10027000809371001092730080916E00DF91CF9196
:1002800008958091730081110FC081E080937900FF
:1002900084E790E00E94010182E0809379008091E0
:1002A00060008F5F8093600008959093700080934A
:1002B0006F00089581E080936100089581E080934C
:1002C0007B000895CF93DF93CDB7DEB728970FB6A5
:1002D000F894DEBF0FBECDBF86E0E8E6F0E0DE01B9
:1002E000119601900D928A95E1F781EA8F8381E062
:1002F00088878EE591E00E945501CE0107960E9405
:1003000049008AE591E00E948F02CE0101960E9489
:100310009902789448E150E064E870E081EA0E9434
:10032000E70011E080917B00811106C01ABB0E949A
:1003300093008091610081BB80917B00813091F7B7
:1003400080916100813071F7E0917A00F0E0EC5724
:10035000FF4F80810E94CC021092610011BA8091FF
:100360007A008F5F80937A00DDCF1F920F920FB6D5
:100370000F9211242F933F934F935F936F937F932B
:100380008F939F93AF93BF93EF93FF93E0917C0084
:10039000F0917D00309709F00995FF91EF91BF91A1
:1003A000AF919F918F917F916F915F914F913F910D
:1003B0002F910F900FBE0F901F901895FC0181E0B8
:1003C00084BB8081811106C087B38F7487BBBE9ABE
:1003D0006C9807C0813029F487B3806B87BBBE98C7
:1003E0006C9A8DB18F779181892B8DB96E9A9DB161
:1003F000828183709C7F982B9DB99EB18281282F2A
:1004000026952695892F8E7F822B8EB908959093FD
:100410007D0080937C0008956F9902C0779BFECF8A
:100420008FB184BD8FB108951F920F920FB60F92B6
:1004300011242F933F934F935F936F937F938F93E9
:100440009F93AF93BF93EF93FF93E0918000F09160
:100450008100309709F00995FF91EF91BF91AF911D
:100460009F918F917F916F915F914F913F912F91CC
:100470000F900FBE0F901F9018951F920F920FB6FE
:100480000F9211242F933F934F935F936F937F931A
:100490008F939F93AF93BF93EF93FF93E0917E0071
:1004A000F0917F00309709F00995FF91EF91BF918E
:1004B000AF919F918F917F916F915F914F913F91FC
:1004C0002F910F900FBE0F901F9018951F920F92B3
:1004D0000FB60F9211242F933F934F935F936F9317
:1004E0007F938F939F93AF93BF93EF93FF93E0918D
:1004F0008200F0918300309709F00995FF91EF9108
:10050000BF91AF919F918F917F916F915F914F912B
:100510003F912F910F900FBE0F901F9018959093C1
:1005200083008093820008959093810080938000DF
:100530000895FC01599A8181813051F018F0823080
:1005400069F013C0539A8581813079F4569A0DC0B1
:10055000549A8581813049F4579A07C0539A549A26
:100560008581813011F4569A579A8AB1928194709C
:100570008B7F892B8AB980B592819370990F2081E6
:10058000292B9381892B80689481892B822B80BDB4
:1005900010BC8FEC89B90895569902C05D9BFECFBF
:1005A0008CB90895579902C05F9BFECF8CB1089516
:0405B000F894FFCFED
:0E05B400FF0100000300000100000300000131
:00000001FF
