S00D00004C43444F532E73726563A2
S113000029C0000042C0000040C000003EC0000003
S11300103CC000003AC0000038C0000036C00000F8
S113002034C0000032C0000030C00000A9C100008C
S11300302CC000002AC0000028C0000026C0000018
S113004024C0000022C0000020C000001EC0000028
S11300501CC0000011241FBECFE5D8E0DEBFCDBF19
S113006010E0A0E6B0E0ECE0F4E002C005900D92F0
S1130070AA37B107D9F720E0AAE7B0E001C01D9282
S1130080AC37B207E1F7A3D1BFC1BACFAB01BC0112
S1130090411551056105710571F408950197F1F752
S11300A02F5F3F4FC901A0E0B0E084179507A60772
S11300B0B70718F0089520E030E088EE93E0EECF23
S11300C0CF93C82FC295CF70C0FF05C04FEF60E13A
S11300D080E008D104C040E060E180E003D1C1FFCA
S11300E005C04FEF60E280E0FDD004C040E060E274
S11300F080E0F8D0C2FF05C04FEF60E480E0F2D0AA
S113010004C040E060E480E0EDD0C87029F04FEF17
S113011060E880E0E7D004C040E060E880E0E2D03E
S1130120CF910895CF93DF93C1E6D0E04FEF69817B
S11301308881D8D040E069818881D4D0DF91CF9183
S11301400895CF93C82FE7E6F0E040E06181808115
S1130150C9D08C2FB5DFE6DF61E070E080E090E08D
S113016095DF8C2F8295807FABDFDCDF61E070E070
S113017080E090E08BDFCF9108958AE690E051D043
S113018081E690E04ED087E690E04BD084E690E0A4
S113019048D0E7E6F0E040E061818081A3D0E4E666
S11301A0F0E040E0618180819DD0E1E6F0E040E054
S11301B06181808197D082E3C4DF80916000C1DFD8
S11301C08CE0BFDF81E0BDCF0895CF93C82FE7E671
S11301D0F0E04FEF6181808185D08C2F71DFA2DF49
S11301E08C2F8295807F6CDF9DDFCF9108950F93D4
S11301F01F93CF93FC018081882379F08F01C0E0A5
S1130200E4DFCF5F61E070E080E090E03FDFF80181
S1130210EC0FF11D80818111F3CFCF911F910F91CC
S11302200895FC01892B09F451C080818130C1F00B
S113023028F0823039F18330B9F14AC082818F3F8E
S113024031F49AB38181892B8ABB81E008958111AD
S113025041C09AB38181809589238ABB81E0089546
S113026082818F3F31F497B38181892B87BB81E0F1
S11302700895811131C097B381818095892387BB0B
S113028081E0089582818F3F31F494B38181892B79
S113029084BB81E00895811121C094B3818180954C
S11302A0892384BB81E0089582818F3F31F491B327
S11302B08181892B81BB81E00895811111C091B3A3
S11302C081818095892381BB81E0089580E0089530
S11302D080E0089580E0089580E0089580E0089526
S11302E080E008958130A9F028F0823009F183304C
S11302F071F13CC04F3F29F48BB3682B6BBB81E099
S11303000895411135C08BB3609568236BBB81E0C0
S113031008954F3F29F488B3682B68BB81E00895A2
S1130320411128C088B36095682368BB81E00895B3
S11303304F3F29F485B3682B65BB81E008954111D3
S11303401BC085B36095682365BB81E008954F3F6A
S113035029F482B3682B62BB81E0089541110EC079
S113036082B36095682362BB81E0089580E00895BC
S113037080E0089580E0089580E0089580E0089585
S11303801F920F920FB60F9211242F933F934F9306
S11303905F936F937F938F939F93AF93BF93EF93E9
S11303A0FF93E0917A00F0917B000995FF91EF9122
S11303B0BF91AF919F918F917F916F915F914F9179
S11303C03F912F910F900FBE0F901F901895CF93D0
S11303D0DF93CDB7DEB72C970FB6F894DEBF0FBE10
S11303E0CDBFCBDE6AE070E080E090E04FDE8CE0D1
S11303F0EDE6F0E0DE01119601900D928A95E1F7A9
S10F0400CE010196F4DEFFCFF894FFCF8C
S113040C280008FF0004FF0002FF00F0FF68617A77
S10D041C656D6562726168696D0028
S9030000FC
