:100000000C942A000C941C040C9443040C946A0471
:100010000C9491040C94B8040C94DF040C94060521
:100020000C942D050C9454050C947B050C94A2059E
:100030000C94C9050C94F0050C9417060C943E061C
:100040000C9465060C948C060C94B3060C94DA069A
:100050000C94010711241FBECFE5D8E0DEBFCDBF51
:1000600011E0A0E6B0E0E0EBF2E202C005900D92F4
:10007000A83DB107D9F712E0A8EDB1E001C01D928B
:10008000A735B107E1F70E94630F0C9456110C9449
:1000900000000E9467000E94B60380E008950E945D
:1000A000BF0388ED91E00E94D5038091D801909123
:1000B000D9018F31910528F483E062E30E946B003F
:1000C00004C081E062E30E946B0080E0089583E059
:1000D0000E944D020895CF93C62F8230A1F0833045
:1000E00020F4813009F042C005C0833051F18430E2
:1000F000E9F512C083E061E00E947C0283E06C2F8E
:100100000E94250334C083E062E00E947C0283E009
:100110006C2F0E9425032BC081E061E00E947C02CD
:1001200082E062E00E947C0283E06C2F0E94250343
:1001300081E060E00E947C0282E060E00E947C023C
:1001400016C081E062E00E947C0282E061E00E94D1
:100150007C0283E06C2F0E94250381E060E00E9416
:100160007C0282E060E00E947C0201C080E0CF91CE
:10017000089580E068E04FEF0E94840761E070E03E
:1001800080E090E00E94AB0380E068E040E00E94E5
:10019000840761E070E080E090E00E94AB03089586
:1001A00087E790E00E9428070895CF93C82FC29553
:1001B000CF70C0FF06C080E060E14FEF0E9484076F
:1001C00005C080E060E140E00E948407C1FF06C0F6
:1001D00080E060E24FEF0E94840705C080E060E2AB
:1001E00040E00E948407C2FF06C080E060E44FEF59
:1001F0000E94840705C080E060E440E00E9484071C
:10020000C87031F080E060E84FEF0E94840705C0BD
:1002100080E060E840E00E948407CF910895CF938A
:10022000C82F80E062E04FEF0E9484078C2F0E946D
:10023000D5000E94B9008C2F8295807F0E94D50046
:100240000E94B90061E070E080E090E00E949503B8
:10025000CF910895CF93C82F80E062E040E00E94E4
:1002600084078C2F0E94D5000E94B9008C2F8295A4
:10027000807F0E94D5000E94B90061E070E080E0BC
:1002800090E00E949503CF9108950F931F93CF9311
:10029000DF93CDB7DEB729970FB6F894DEBF0FBE58
:1002A000CDBF8E010F5F1F4F89E0F80111928A9533
:1002B000E9F783E3898382E38A8388E28B838EE094
:1002C0008C8381E08D8386E08E838CE08F830E9417
:1002D000D0008091DA01F801E80FF11D80818823B8
:1002E00051F00E942A018091DA018F5F8093DA0138
:1002F0001092FE0103C081E08093FE0129960FB6A3
:10030000F894DEBF0FBECDBFDF91CF911F910F914B
:10031000089581E00E942A010895CF93DF93EC01B4
:100320008881882331F021960E940F0189918823CA
:10033000D9F7DF91CF910895623031F0633031F019
:10034000613029F4805C03C08C5E01C08C5A8068E7
:100350000E942A0108950F931F93CF93DF934017B4
:10036000510762077307C0F4D8011196A80FB91F8F
:10037000FC01E40FF51F4F5F5F4F6F4F7F4F015040
:10038000104020403040C081DE91D193CC93401783
:1003900051076207730778F3DF91CF911F910F9197
:1003A00008954F925F926F927F928F929F92AF9239
:1003B000BF92CF92DF92EF92FF920F931F93CF9352
:1003C000DF936B017C012A0148015901D901C80161
:1003D0000297A109B1098F319105A105B10508F076
:1003E00049C09601DD201CF4309521953F4F211521
:1003F000310539F1E20101E010E06901EE24D7FC9A
:10040000E094FE2CC701B601A50194010E943411AD
:100410006A30710524F0695C6883380103C0605D4F
:1004200068833801C701B601A50194010E94341107
:100430000F5F1F4F219621153105F9F661147104E4
:1004400031F480E3F2018083662477246394F2011F
:10045000E60DF71D108208946108710883012227B8
:1004600017FD2095322FC20140E050E0BA010E94F2
:10047000AB012C01842D952DDF91CF911F910F9110
:10048000FF90EF90DF90CF90BF90AF909F908F90B4
:100490007F906F905F904F900895823079F0833015
:1004A000C9F0813039F58093DB0182E890E00E9449
:1004B000630986E690E00E942807089582E0809311
:1004C000DB0180E890E00E94630983E690E00E94EF
:1004D0002807089583E08093DB0182E890E00E9482
:1004E000630980E890E00E94630980E690E00E9442
:1004F0002807089581E00895823079F1833009F466
:1005000055C0813009F099C0613031F06130D0F0D0
:10051000623009F094C00BC083E064E04FEF0E94AA
:10052000840783E068E040E00E948407089583E048
:1005300068E04FEF0E94840783E064E040E00E949F
:100540008407089583E064E040E00E94840783E02C
:1005500068E040E00E9484070895613031F0613026
:10056000D0F0623009F06DC00BC083E060E84FEF5F
:100570000E94840783E060E440E00E9484070895BD
:1005800083E060E44FEF0E94840783E060E840E08E
:100590000E948407089583E060E440E00E9484079D
:1005A00083E060E840E00E9484070895613031F004
:1005B000613070F1623009F046C015C083E064E03C
:1005C0004FEF0E94840783E068E040E00E948407C8
:1005D00083E060E440E00E94840783E060E84FEF3E
:1005E0000E948407089583E064E040E00E9484074D
:1005F00083E068E04FEF0E94840783E060E44FEF00
:100600000E94840783E060E840E00E948407089528
:1006100083E064E040E00E94840783E060E440E01F
:100620000E94840783E068E040E00E94840783E042
:1006300060E840E00E948407089580E0089580E02B
:10064000089580E0089581E00895823069F0833054
:10065000A9F08130F1F48093DC012EE130E040E03C
:1006600050E00E948D09089582E08093DC012EE124
:1006700030E040E050E00E948D09089583E08093CF
:10068000DC0182E02EE130E040E050E00E948D0984
:10069000089581E00895823079F08330C1F081308F
:1006A00011F58091DB01813001F52EE130E040E071
:1006B00050E00E948D0908958091DB018230B9F4E9
:1006C0002EE130E040E050E00E948D0908958091D5
:1006D000DB01833071F482E02EE130E040E050E055
:1006E0000E948D09089581E0089581E0089581E0D8
:1006F000089581E00895813019F0823049F404C0F2
:1007000081E00E945E0B089582E00E945E0B0895D6
:1007100081E008959091DB01981721F481E0FB01BD
:1007200080830895FB0110820895DC01CB010097BE
:10073000A105B10561F408952150F1F7315011F090
:10074000242FFACF0197A109B10919F4089555E1B1
:100750004FEF352FF5CFDC01CB010097A105B10597
:1007600021F00197A109B109E1F7089589E690E028
:100770000E9428078AE790E00E940C08089582E012
:1007800090E060E170E04FEF50E00E94840780E06D
:100790006AE070E00E94690C82E090E060E170E045
:1007A00040E050E00E94840708950F931F93CF9379
:1007B000DF9300D000D0CDB7DEB78C0182E061E0DE
:1007C000AE014F5F5F4F0E943D0829813A81F801D9
:1007D000318320830F900F900F900F90DF91CF9176
:1007E0001F910F9108958FB780688FBF0895BA98B1
:1007F000C29A8BB780628BBF84B7806484BF089530
:100800008B98939A8BB780688BBF85B7846085BFC0
:1008100085B7877F85BF08958A98929A8BB7806441
:100820008BBF85B7816085BF85B78D7F85BF0895F4
:100830008FB78F778FBF08951F920F920FB60F92C9
:1008400011242F933F934F935F936F937F938F93D5
:100850009F93AF93BF93EF93FF93E0911B02F091AF
:100860001C020995FF91EF91BF91AF919F918F91DC
:100870007F916F915F914F913F912F910F900FBE9C
:100880000F901F9018951F920F920FB60F92112480
:100890002F933F934F935F936F937F938F939F9388
:1008A000AF93BF93EF93FF93E0912302F091240263
:1008B0000995FF91EF91BF91AF919F918F917F919A
:1008C0006F915F914F913F912F910F900FBE0F90BD
:1008D0001F9018951F920F920FB60F9211242F930D
:1008E0003F934F935F936F937F938F939F93AF93B8
:1008F000BF93EF93FF93E0911302F09114020995D7
:10090000FF91EF91BF91AF919F918F917F916F91E7
:100910005F914F913F912F910F900FBE0F901F90BD
:1009200018951F920F920FB60F9211242F933F9399
:100930004F935F936F937F938F939F93AF93BF93E7
:10094000EF93FF93E0912902F0912A020995FF911C
:10095000EF91BF91AF919F918F917F916F915F9137
:100960004F913F912F910F900FBE0F901F901895B0
:100970001F920F920FB60F9211242F933F934F9314
:100980005F936F937F938F939F93AF93BF93EF93F7
:10099000FF93E0910902F0910A020995FF91EF910E
:1009A000BF91AF919F918F917F916F915F914F9187
:1009B0003F912F910F900FBE0F901F9018951F928F
:1009C0000F920FB60F9211242F933F934F935F9383
:1009D0006F937F938F939F93AF93BF93EF93FF9307
:1009E000E0912502F09126020995FF91EF91BF91C8
:1009F000AF919F918F917F916F915F914F913F91B7
:100A00002F910F900FBE0F901F9018951F920F926D
:100A10000FB60F9211242F933F934F935F936F93D1
:100A20007F938F939F93AF93BF93EF93FF93E09147
:100A30000F02F09110020995FF91EF91BF91AF91D4
:100A40009F918F917F916F915F914F913F912F91E6
:100A50000F900FBE0F901F9018951F920F920FB618
:100A60000F9211242F933F934F935F936F937F9334
:100A70008F939F93AF93BF93EF93FF93E0910D02FA
:100A8000F0910E020995FF91EF91BF91AF919F9167
:100A90008F917F916F915F914F913F912F910F9027
:100AA0000FBE0F901F9018951F920F920FB60F92C6
:100AB00011242F933F934F935F936F937F938F9363
:100AC0009F93AF93BF93EF93FF93E0912702F09131
:100AD00028020995FF91EF91BF91AF919F918F915E
:100AE0007F916F915F914F913F912F910F900FBE2A
:100AF0000F901F9018951F920F920FB60F9211240E
:100B00002F933F934F935F936F937F938F939F9315
:100B1000AF93BF93EF93FF93E0911F02F0912002F8
:100B20000995FF91EF91BF91AF919F918F917F9127
:100B30006F915F914F913F912F910F900FBE0F904A
:100B40001F9018951F920F920FB60F9211242F939A
:100B50003F934F935F936F937F938F939F93AF9345
:100B6000BF93EF93FF93E0916C00F0916D000995B6
:100B7000FF91EF91BF91AF919F918F917F916F9175
:100B80005F914F913F912F910F900FBE0F901F904B
:100B900018951F920F920FB60F9211242F933F9327
:100BA0004F935F936F937F938F939F93AF93BF9375
:100BB000EF93FF93E0911102F09112020995FF91DA
:100BC000EF91BF91AF919F918F917F916F915F91C5
:100BD0004F913F912F910F900FBE0F901F9018953E
:100BE0001F920F920FB60F9211242F933F934F93A2
:100BF0005F936F937F938F939F93AF93BF93EF9385
:100C0000FF93E0910702F09108020995FF91EF919F
:100C1000BF91AF919F918F917F916F915F914F9114
:100C20003F912F910F900FBE0F901F9018951F921C
:100C30000F920FB60F9211242F933F934F935F9310
:100C40006F937F938F939F93AF93BF93EF93FF9394
:100C5000E0912102F09122020995FF91EF91BF915D
:100C6000AF919F918F917F916F915F914F913F9144
:100C70002F910F900FBE0F901F9018951F920F92FB
:100C80000FB60F9211242F933F934F935F936F935F
:100C90007F938F939F93AF93BF93EF93FF93E091D5
:100CA0001D02F0911E020995FF91EF91BF91AF9146
:100CB0009F918F917F916F915F914F913F912F9174
:100CC0000F900FBE0F901F9018951F920F920FB6A6
:100CD0000F9211242F933F934F935F936F937F93C2
:100CE0008F939F93AF93BF93EF93FF93E09117027E
:100CF000F09118020995FF91EF91BF91AF919F91EB
:100D00008F917F916F915F914F913F912F910F90B4
:100D10000FBE0F901F9018951F920F920FB60F9253
:100D200011242F933F934F935F936F937F938F93F0
:100D30009F93AF93BF93EF93FF93E0911902F091CC
:100D40001A020995FF91EF91BF91AF919F918F91F9
:100D50007F916F915F914F913F912F910F900FBEB7
:100D60000F901F9018951F920F920FB60F9211249B
:100D70002F933F934F935F936F937F938F939F93A3
:100D8000AF93BF93EF93FF93E0911502F09116029A
:100D90000995FF91EF91BF91AF919F918F917F91B5
:100DA0006F915F914F913F912F910F900FBE0F90D8
:100DB0001F9018951F920F920FB60F9211242F9328
:100DC0003F934F935F936F937F938F939F93AF93D3
:100DD000BF93EF93FF93E0910502F091060209950E
:100DE000FF91EF91BF91AF919F918F917F916F9103
:100DF0005F914F913F912F910F900FBE0F901F90D9
:100E000018951F920F920FB60F9211242F933F93B4
:100E10004F935F936F937F938F939F93AF93BF9302
:100E2000EF93FF93E0910B02F0910C020995FF9173
:100E3000EF91BF91AF919F918F917F916F915F9152
:100E40004F913F912F910F900FBE0F901F901895CB
:100E5000FC01009709F450C08281882321F08F3F64
:100E600009F04CC027C08081813079F0813030F0AA
:100E7000823091F0833009F043C015C09AB381816C
:100E8000809589238ABB80E0089597B381818095FE
:100E9000892387BB80E0089594B38181809589235D
:100EA00084BB80E0089591B381818095892381BBC3
:100EB00080E008958081813069F0813028F08230AF
:100EC00079F08330F9F412C09AB38181892B8ABBFF
:100ED00080E0089597B38181892B87BB80E00895D6
:100EE00094B38181892B84BB80E0089591B3818183
:100EF000892B81BB80E0089586E1089581E0089503
:100F000080E0089580E00895442321F04F3F09F0E8
:100F10003FC021C0813069F0813028F0823079F003
:100F20008330C1F512C08BB3609568236BBB80E042
:100F3000089588B36095682368BB80E0089585B301
:100F40006095682365BB80E0089582B3609568234F
:100F500062BB80E00895813061F0813028F08230FA
:100F600069F08330C9F40FC08BB3682B6BBB80E092
:100F7000089588B3682B68BB80E0089585B3682B1B
:100F800065BB80E0089582B3682B62BB80E0089562
:100F900081E0089580E0089580E00895FA018130AD
:100FA00059F0813028F0823059F0833081F40CC040
:100FB00089B3682360830BC086B36823608307C04E
:100FC00083B36823608303C080B368236083808118
:100FD000882311F081E080830895813061F08130B1
:100FE00028F0823069F08330A9F40FC08BB36827F2
:100FF0006BBB80E0089588B3682768BB80E00895E4
:1010000085B3682765BB80E0089582B3682762BB1B
:1010100080E0089581E00895CF93DF93EC010E9472
:10102000F3038881813041F0813018F0823049F437
:1010300006C00E940C0405C00E94000402C00E9469
:10104000F7038981813051F0813018F0823089F4C2
:101050000CC085E083BF81E089BF0BC085E090E0D4
:101060009FBD8EBD84E089BF04C087E085BD84E05C
:1010700089BF80E0DF91CF9108950F931F93813056
:1010800049F0813018F0823071F40AC083B7836070
:1010900083BF09C08EB59FB585609FBD8EBD03C05F
:1010A00085B5876085BD613001F1613018F062302F
:1010B000D1F52AC08091E1019091E201A091E30174
:1010C000B091E4010091DD011091DE012091DF017A
:1010D0003091E001800F911FA21FB31FFA0180839E
:1010E0009183A283B38380E01FC08091E10190913E
:1010F000E201A091E301B091E401FA0180839183C0
:10110000A283B38380E010C08091DD019091DE0165
:10111000A091DF01B091E001FA0180839183A28365
:10112000B38380E001C081E01F910F910895CF93B8
:10113000C2B76091ED0170E080E090E02FEF30E009
:1011400040E050E00E941511DC01CB018C0F911D95
:10115000A11DB11D8093EE019093EF01A093F001CA
:10116000B093F1011092ED0184B782958695869532
:10117000837080FF30C08091EE019091EF01A091CB
:10118000F001B091F1018093E9019093EA01A093FD
:10119000EB01B093EC018091E9019091EA01A091FB
:1011A000EB01B091EC014091E5015091E6016091B5
:1011B000E7017091E801841B950BA60BB70B809398
:1011C000DD019093DE01A093DF01B093E00184B7CD
:1011D0008F7B84BF2FC08091EE019091EF01A09191
:1011E000F001B091F1018093E5019093E601A093A5
:1011F000E701B093E8018091E5019091E601A091AB
:10120000E701B091E8014091E9015091EA01609154
:10121000EB017091EC01841B950BA60BB70B80932F
:10122000E1019093E201A093E301B093E40184B75C
:10123000806484BFCF9108958130C1F0813018F06F
:101240008230D1F526C082E060E142EF51E00E9499
:10125000CE078091F201813081F59091F5019F5F79
:101260009093F501933370F580E0089581E064E098
:1012700043EF51E00E94CE078091F3018130F9F4F1
:101280009091F5019F5F9093F5019333D8F480E03E
:10129000089580E064E044EF51E00E94CE07809121
:1012A000F401813071F49091F6019F5F9093F60103
:1012B000953140F480E00895089580E0089580E03D
:1012C000089580E00895FC018081813061F08130D3
:1012D00028F0823081F08330D9F415C083B7886656
:1012E00083BF80E016C08EB59FB58062916A9FBDB6
:1012F0008EBD80E00EC08EB59FB58062916A9FBDA5
:101300008EBD80E006C085B5886685BD80E001C0E1
:1013100081E091819093F8010895CF92DF92EF924E
:10132000FF920F931F9389019A010F2EFEEACF2E91
:10133000F0EFDF2EFFEFEF2EFFEFFF2EF02DC00EB0
:10134000D11EE21EF31E9BE3C9169BE6D90690E070
:10135000E90690E0F90618F41092F801A2C00F2EE9
:10136000FBE2CF2EFCEFDF2EFFEFEF2EFFEFFF2E85
:10137000F02DC00ED11EE21EF31E9DE7C9169BE0A4
:10138000D90690E0E90690E0F90620F491E0909308
:10139000F801A5C00F2EF5E1CF2EFEEFDF2EFFEFF7
:1013A000EF2EFFEFFF2EF02DC00ED11EE21EF31E1A
:1013B0009AEEC91691E0D90690E0E90690E0F906A8
:1013C00020F492E09093F801A1C00F2EFAE0CF2E06
:1013D000FFEFDF2EFFEFEF2EFFEFFF2EF02DC00E01
:1013E000D11EE21EF31E95EFC916D104E104F104EB
:1013F00020F493E09093F80190C00F2EF5E8CF2EE3
:10140000FFEFDF2EFFEFEF2EFFEFFF2EF02DC00ED0
:10141000D11EE21EF31E9BE7C916D104E104F104BC
:1014200020F494E09093F801A5C00F2EF0EECF2E9B
:10143000FFEFDF2EFFEFEF2EFFEFFF2EF02DC00EA0
:10144000D11EE21EF31E9BE5C916D104E104F1048E
:1014500020F495E09093F80177C0015010402040AF
:1014600030400F3111052105310520F496E09093AD
:10147000F80186C09091F801933009F44EC0943081
:1014800030F4913061F1923008F040C00AC09530DC
:1014900009F45AC0953008F46DC0963009F08DC03B
:1014A0006FC0813061F0813030F0823071F0833074
:1014B00009F083C010C083B7816083BF88C08EB538
:1014C0009FB581609FBD8EBD98C08EB59FB5816070
:1014D0009FBD8EBDADC085B5816085BDC4C0833064
:1014E00018F4813048F404C0833009F066C00AC0A3
:1014F00083B7826083BF6BC02EB53FB522603FBD0E
:101500002EBD5BC085B5826085BDADC0833009F05E
:1015100054C085B5836085BDA6C0833018F4813082
:1015200048F404C0833009F048C00AC083B7836020
:1015300083BF4DC02EB53FB523603FBD2EBD3DC01E
:1015400085B5846085BD8FC0833018F4813040F448
:1015500003C0833091F50AC083B7836083BF37C06F
:101560002EB53FB523603FBD2EBD27C085B5846035
:1015700085BD79C0833009F585B5856085BD73C0AB
:10158000813059F0813028F0823069F08330A9F43D
:1015900010C083B7856083BF1AC08EB59FB58160C8
:1015A0009FBD8EBD2AC08EB59FB585609FBD8EBD87
:1015B0003FC085B5876085BD56C08130F1F0813070
:1015C00030F08230A9F1833009F063C04CC070E084
:1015D00080E090E00E94241020E030E048EC52E4EB
:1015E0000E94900F20E030E04FE753E40E94B210D9
:1015F0000E94F80F6CBF80E04DC070E080E090E08A
:101600000E94241020E030E048EC52E40E94900F49
:1016100020E030E04FE753E40E94B2100E94F80F40
:10162000DC01CB019BBD8ABD99BD88BD80E032C085
:1016300070E080E090E00E94241020E030E048EC70
:1016400052E40E94900F20E030E04FE753E40E9404
:10165000B2100E94F80FDC01CB019BBD8ABD99BD81
:1016600088BD80E017C070E080E090E00E94241008
:1016700020E030E048EC52E40E94900F20E030E09F
:101680004FE753E40E94B2100E94F80F63BD80E060
:1016900001C081E091E09093F9011F910F91FF90BB
:1016A000EF90DF90CF9008959091F901913021F45F
:1016B0000E948D0980E0089581E00895833018F438
:1016C000813048F403C0833081F40AC083B7887F37
:1016D00083BF80E0089583B7887F83BF80E008954B
:1016E00085B5887F85BD80E0089581E008951F93CA
:1016F000CF93DF93EC018B818093FA01209711F057
:1017000010E001C010E28881813009F44CC08130C2
:1017100020F0823009F0D8C093C083B783BF89819D
:101720008130B9F0813018F08230E1F526C08A812D
:10173000882319F0813059F404C089B78C7F89BFA0
:1017400032C00E94F30389B7816089BF2CC01F5F3C
:101750002AC083B78D6083BF8A81882319F08130C6
:1017600059F404C089B78C7F89BF07C00E94F30376
:1017700089B7816089BF01C01F5F83B78C6083BF59
:101780008A81882319F0813059F404C089B78C7F8D
:1017900089BF09C00E94F30389B7816089BF03C074
:1017A0001F5F01C01F5F89818130D1F0813020F03F
:1017B000823009F043C02BC01FBC1EBC8A81882325
:1017C00019F0813059F404C089B7837C89BF7CC08B
:1017D0000E94F30389B7846089BF76C01F5F74C01D
:1017E0008EB59FB587609FBD8EBD8A81882319F015
:1017F000813059F404C089B7837C89BF65C00E94D9
:10180000F30389B7846089BF5FC01F5F5DC08EB579
:101810009FB586609FBD8EBD8A81882319F0813077
:1018200059F404C089B7837C89BF4EC00E94F3037A
:1018300089B7846089BF48C01F5F46C01F5F44C02E
:1018400085B585BD8981882319F08130E1F512C005
:101850008A81882319F0813059F404C089B78F73C5
:1018600089BF32C00E94F30389B7806C89BF2CC046
:101870001F5F2AC082B5886082BD8A81813049F0AD
:10188000813018F08230F9F40AC089B78F7389BFAC
:101890001AC00E94F30389B7806C89BF14C082B557
:1018A000886082BD8A81882319F0813059F404C090
:1018B00089B78F7389BF07C00E94F30389B7806C13
:1018C00089BF01C01F5F1F5F812FDF91CF911F91E3
:1018D0000895813009F44FC0813020F0823009F042
:1018E000F3C097C08091FA01843021F1853030F443
:1018F000813051F0823009F0E9C011C0863029F101
:10190000873009F0E3C02CC06F3F710508F0E0C0DC
:1019100083B7816083BF609562BF80E008956F3FA9
:10192000710508F0D7C083B7826083BF609562BF3E
:1019300080E008956F3F710508F0CEC083B78360E3
:1019400083BF609562BF80E008956F3F710508F026
:10195000C5C083B7846083BF609562BF80E008958F
:101960006F3F710508F0BCC083B7856083BF609589
:1019700062BF80E008958091FA01843031F18530B2
:1019800030F4813051F0823009F0ACC012C08630A2
:1019900041F1873009F0A6C030C08EB59FB5816097
:1019A0009FBD8EBD709561957F4F7DBD6CBD80E004
:1019B00008958EB59FB582609FBD8EBD709561956F
:1019C0007F4F7DBD6CBD80E008958EB59FB583606F
:1019D0009FBD8EBD709561957F4F7DBD6CBD80E0D4
:1019E00008958EB59FB584609FBD8EBD709561953D
:1019F0007F4F7DBD6CBD80E008958EB59FB585603D
:101A00009FBD8EBD709561957F4F7DBD6CBD80E0A3
:101A100008958091FA01843079F1853040F4823064
:101A2000C9F0833010F5813009F05EC008C08630FF
:101A3000B9F1863058F1873009F056C03BC06F3F8E
:101A4000710508F053C085B5816085BD609564BDA2
:101A500080E008956F3F710508F04AC085B5826047
:101A600085BD609564BD80E0089585B5836085BDC2
:101A7000609564BD80E008956F3F7105D8F585B528
:101A8000846085BD609564BD80E008956F3F7105F9
:101A900098F585B5856085BD609564BD80E0089545
:101AA0006F3F710558F585B5866085BD609564BD4D
:101AB00080E008956F3F710518F585B5876085BD95
:101AC000609564BD80E0089581E0089580E0089508
:101AD00080E0089580E0089580E0089580E0089512
:101AE00080E0089580E0089580E0089580E0089502
:101AF00080E0089580E0089580E0089580E00895F2
:101B000080E00895813051F0813018F0823091F4F6
:101B10000CC083B7887F83BF80E008958EB59FB5E2
:101B2000887F9FBD8EBD80E0089585B5887F85BD87
:101B300080E0089581E00895813059F0813018F0F7
:101B40008230C9F40EC088B78170FB01808380E0C9
:101B5000089588B7869586958170FB01808380E023
:101B6000089588B782958695869583708170FB016C
:101B7000808380E0089581E00895FB01813051F079
:101B8000813018F0823089F40BC082B780831182D3
:101B900080E008958CB59DB59183808380E00895A1
:101BA00084B58083118280E0089581E008950F93C9
:101BB0001F93CF93DF93EC0109818091FD018F5F2B
:101BC0008093FD01209711F010E001C01AE200237C
:101BD00019F0023079F407C00E94F3038AE890E01C
:101BE0000E94770B08C00E94F30380E990E00E94F6
:101BF000770B01C01F5F8881813099F4002319F0B1
:101C0000023069F406C080E06AEF70E00E94690C5F
:101C100009C082E06EE070E00E94690C03C01F5FA3
:101C200001C01F5F812FDF91CF911F910F91089508
:101C30008091FD01813041F484E890E00E94770BAF
:101C40001092FD0180E00895823010F086E0089542
:101C500081E008955091FD01513099F4E42FF0E0B6
:101C6000EE0FFF1FEE0FFF1FEE0FFF1FE15DFD4F99
:101C70009183808365833483238381E0828380E042
:101C80000895523010F086E0089584E00895CF93CF
:101C9000DF938091FB01813009F065C01092FB0158
:101CA0001092FC0120E0CFE2D2E030E0F901EE0F2B
:101CB000FF1FEE0FFF1FEE0FFF1FEC0FFD1F8281B6
:101CC000882309F448C0F901EE0FFF1FEE0FFF1F34
:101CD000EE0FFF1FEC0FFD1F86819781AC014F5F58
:101CE0005F4F578346838381948148175907D1F406
:101CF000F901EE0FFF1FEE0FFF1FEE0FFF1FEC0F9E
:101D0000FD1F0190F081E02D0995E091FC01F0E0CC
:101D1000EE0FFF1FEE0FFF1FEE0FFF1FEC0FFD1F5B
:101D2000178216828091FC0190E0FC01EE0FFF1FEC
:101D3000EE0FFF1FEE0FFF1FEC0FFD1F258122236B
:101D400051F4FC01EE0FFF1FEE0FFF1FEE0FFF1F00
:101D5000EC0FFD1F12822091FC012F5F2093FC01EC
:101D6000243008F4A2CF80E0DF91CF910895E82FCE
:101D7000F0E0EE0FFF1FEE0FFF1FEE0FFF1FE15D04
:101D8000FD4F128208958091FE01813009F06AC0F2
:101D90008091FF018A3008F061C08091000280319B
:101DA00028F4809301021092020206C091E0909301
:101DB00002028051809301022091FF0130E04091A6
:101DC0000002F901EE0FFF1FE295F295F07FFE276A
:101DD000E07FFE27E40FF11DEA56FF4F8081882344
:101DE000F1F080910102609102020E949C019091A9
:101DF0000002E091FF01F0E0EE0FFF1FE295F29587
:101E0000F07FFE27E07FFE27E90FF11DEA56FF4F26
:101E100080819F5F909300020E940F0121C0403299
:101E2000D0F44132E8F486E990E0220F331F229586
:101E30003295307F3227207F322750E2F901E40FBC
:101E4000F11DE80FF91F50834F5F4132B9F781E26E
:101E50008093000205C01092000202C01092FF01A0
:101E60001092FE01089580E00E941C09882329F049
:101E7000809103028F5F809303028091030285317A
:101E800038F08091FF018F5F8093FF011092030271
:101E900081E00E941C09882329F0809104028F5F51
:101EA0008093040280910402853138F08091FF0113
:101EB00081508093FF01109204020895089581E0FB
:101EC0008093FB01089584E790E00E94280781E752
:101ED00090E00E9428070E94D0008EE690E00E94C9
:101EE000280786ED91E00E94D70D85E491E061E03E
:101EF00040E022E330E00E942A0E83EC9EE061E0A5
:101F000041E024E130E00E942A0E83E39FE061E09B
:101F100042E02AE030E00E942A0E0E94470EFDCFE8
:101F20000CD0E6C0DED040F0D5D030F021F45F3FD9
:101F300019F0C7C0511110C1CAC0EBD098F3992352
:101F4000C9F35523B1F3951B550BBB27AA2762177D
:101F50007307840738F09F5F5F4F220F331F441FC2
:101F6000AA1FA9F333D00E2E3AF0E0E830D09150FA
:101F70005040E695001CCAF729D0FE2F27D0660FE7
:101F8000771F881FBB1F261737074807AB07B0E826
:101F900009F0BB0B802DBF01FF2793585F4F2AF03C
:101FA0009E3F510568F08DC0D7C05F3FECF3983E6F
:101FB000DCF3869577956795B795F7959F5FC9F799
:101FC000880F911D9695879597F90895E1E0660F22
:101FD000771F881FBB1F621773078407BA0720F09B
:101FE000621B730B840BBA0BEE1F88F7E095089504
:101FF00098D088F09F5790F0B92F9927B751A0F04B
:10200000D1F0660F771F881F991F1AF0BA95C9F78C
:1020100012C0B13081F09FD0B1E008959CC0672F0D
:10202000782F8827B85F39F0B93FCCF3869577953C
:102030006795B395D9F73EF4909580957095619525
:102040007F4F8F4F9F4F0895E89409C097FB3EF450
:1020500090958095709561957F4F8F4F9F4F9923F5
:10206000A9F0F92F96E9BB279395F6958795779573
:102070006795B795F111F8CFFAF4BB0F11F460FF33
:102080001BC06F5F7F4F8F4F9F4F16C0882311F08B
:1020900096E911C0772321F09EE8872F762F05C09F
:1020A000662371F096E8862F70E060E02AF09A953A
:1020B000660F771F881FDAF7880F9695879597F92F
:1020C000089597F99F6780E870E060E008959FEFBA
:1020D00080EC089500240A941616170618060906BF
:1020E000089500240A94121613061406050608958E
:1020F000092E0394000C11F4882352F0BB0F40F416
:10210000BF2B11F460FF04C06F5F7F4F8F4F9F4F55
:10211000089557FD9058440F551F59F05F3F71F0D7
:102120004795880F97FB991F61F09F3F79F087953E
:102130000895121613061406551FF2CF4695F1DFC7
:1021400008C0161617061806991FF1CF8695710557
:10215000610508940895E894BB2766277727CB018B
:1021600097F908950BD0C4CFB5DF28F0BADF18F087
:10217000952309F0A6CFABCF1124EECFCADFA0F391
:10218000959FD1F3950F50E0551F629FF001729F0C
:10219000BB27F00DB11D639FAA27F00DB11DAA1F2B
:1021A000649F6627B00DA11D661F829F2227B00D78
:1021B000A11D621F739FB00DA11D621F839FA00D03
:1021C000611D221F749F3327A00D611D231F849F53
:1021D000600D211D822F762F6A2F11249F575040AA
:1021E0008AF0E1F088234AF0EE0FFF1FBB1F661F45
:1021F000771F881F91505040A9F79E3F510570F0FE
:1022000060CFAACF5F3FECF3983EDCF386957795DD
:102210006795B795F795E7959F5FC1F7FE2B880FF8
:10222000911D9695879597F90895629FD001739FA8
:10223000F001829FE00DF11D649FE00DF11D929F62
:10224000F00D839FF00D749FF00D659FF00D9927A1
:10225000729FB00DE11DF91F639FB00DE11DF91FC5
:10226000BD01CF0111240895A1E21A2EAA1BBB1BA8
:10227000FD010DC0AA1FBB1FEE1FFF1FA217B30752
:10228000E407F50720F0A21BB30BE40BF50B661F68
:10229000771F881F991F1A9469F76095709580952C
:1022A00090959B01AC01BD01CF010895F894FFCF3B
:1022B00003FCFF03E0FF031CFF0210FF5F0F031C82
:1022C000FF02100001040000FFFF020003060006E9
:1022D00002060106000001000000000001040000E9
:1022E000020001070000312E49732035202B2032D7
:1022F000203D2037203F202000000000000000008B
:10230000000000000000322E4953204561727468BD
:1023100020466C6174203F20200000000000000077
:10232000000000000000332E446F20596F75206CB0
:10233000696B652043686F636F6C6174653F200053
:10234000000000000000342E446F20596F75206C8F
:10235000696B6520456D62656464656420537973BB
:1023600074656D73203F352E446F20596F75204B77
:102370006E6F77204D79206E616D65203F200000E3
:10238000000000000000362E4E4F2000000000002C
:10239000000000000000000000000000000000003D
:1023A000000000000000372E5945532000000000B7
:1023B000000000000000000000000000000000001D
:1023C000000000000000382E46616C736520416EED
:1023D00073776572212120000000000000000000DA
:1023E000000000000000392E436F72726563742094
:1023F000416E73776572212120000000000000000B
:1024000000000000000031302E47616D65204F76DE
:1024100065720000000000000000000000000000E5
:082420000000000000000100B3
:040000050080024F26
:00000001FF
