:100000000C942A000C9447000C9447000C9449006F
:100010000C9447000C94EC010C9447000C9447009E
:100020000C9447000C94C3010C9447000C949A0163
:100030000C9498000C94F0000C94BF000C944700B2
:100040000C9447000C9447000C9447000C94470014
:100050000C94470011241FBECFE5D8E0DEBFCDBF12
:1000600010E0A0E6B0E0EEE2F4E002C005900D92F0
:10007000A236B107D9F720E0A2E6B0E001C01D9298
:10008000AC3AB207E1F70E9497000C9415020C9469
:1000900000001F920F920FB60F9211242F933F93DF
:1000A0004F935F936F937F938F939F93AF93BF9380
:1000B000EF93FF9380916000813019F08230A9F0B6
:1000C00025C06FEF70E0809162000E94190180915D
:1000D0009700909182009F7B909382008062809332
:1000E000970082E08093600011C0809162000E94BE
:1000F0006B018091970090918200906490938200B0
:1001000080628093970083E080936000FF91EF917D
:10011000BF91AF919F918F917F916F915F914F911F
:100120003F912F910F900FBE0F901F901895FFCF0A
:100130001F920F920FB60F9211242F933F934F935C
:100140005F936F937F938F939F93AF93BF93EF933F
:10015000FF93E0916300F09164000995FF91EF91A6
:10016000BF91AF919F918F917F916F915F914F91CF
:100170003F912F910F900FBE0F901F9018951F92D7
:100180000F920FB60F9211242F933F934F935F93CB
:100190006F937F938F939F93AF93BF93EF93FF934F
:1001A000E0916700F091680009958093800080914C
:1001B00087008F7D8093870081E080936100FF91AD
:1001C000EF91BF91AF919F918F917F916F915F91CF
:1001D0004F913F912F910F900FBE0F901F90189548
:1001E0001F920F920FB60F9211242F933F934F93AC
:1001F0005F936F937F938F939F93AF93BF93EF938F
:10020000FF93E0916500F091660080918000099570
:10021000FF91EF91BF91AF919F918F917F916F91DE
:100220005F914F913F912F910F900FBE0F901F90B4
:1002300018958130C1F018F0823069F140C080918A
:100240006F0080FF3EC06F3F710509F0E0F56095DB
:100250006093930090919E0080917200892B80930F
:100260009E0080E0089580916F0081FF2EC07195FF
:10027000619571097093A1006093A00020917100B5
:100280008091AA009091AB00822B9093AB00809359
:10029000AA0080E0089580916F0082FF18C06F3F30
:1002A000710509F0B0F4609560937B009091900027
:1002B00080917000892B8093900080E008958BE1FD
:1002C000089586E108958CE1089586E1089586E118
:1002D00008958CE10895813079F018F08230B9F0FA
:1002E00021C080916F0080FF1FC080919E00887F99
:1002F00080939E0080E0089580916F0081FF16C07A
:100300008091A200887F8093A20080E00895809170
:100310006F0082FF0DC080919000887F80939000D5
:1003200080E008958BE1089586E1089586E10895BF
:1003300086E108951F920F920FB60F9211242F930A
:100340003F934F935F936F937F938F939F93AF935D
:10035000BF93EF93FF93E0916D00F0916E003097A3
:1003600009F00995FF91EF91BF91AF919F918F9106
:100370007F916F915F914F913F912F910F900FBEA1
:100380000F901F9018951F920F920FB60F92112485
:100390002F933F934F935F936F937F938F939F938D
:1003A000AF93BF93EF93FF93E0916B00F0916C00DC
:1003B000309709F00995FF91EF91BF91AF919F910F
:1003C0008F917F916F915F914F913F912F910F90FE
:1003D0000FBE0F901F9018951F920F920FB60F929D
:1003E00011242F933F934F935F936F937F938F933A
:1003F0009F93AF93BF93EF93FF93E0916900F091C8
:100400006A00309709F00995FF91EF91BF91AF9184
:100410009F918F917F916F915F914F913F912F911C
:0E0420000F900FBE0F901F901895F894FFCF0D
:02042E000101CA
:00000001FF
