S014000042434D5F52656365697665722E73726563AA
S11300000C942A000C9447000C9447000C9447006D
S11300100C9447000C9447000C9447000C94470040
S11300200C9447000C9447000C9447000C94470030
S11300300C94F4010C944F020C9478020C94A102D9
S11300400C9447000C9447000C9447000C94470010
S11300500C94470011241FBECFE5D8E0DEBFCDBF0E
S113006010E0A0E6B0E0EAE2F6E002C005900D92EE
S1130070AE36B107D9F720E0AEE6B0E001C01D927C
S1130080A538B207E1F70E9474010C9413030C9491
S11300900000CF93DF93CDB7DEB729970FB6F8945E
S11300A0DEBF0FBECDBF9C0186E0E2E6F0E0DE01DC
S11300B0119601900D928A95E1F71F8280E8888756
S11300C01986F9019181913041F018F0923041F094
S11300D00AC01A8281E08F8309C081E08A8306C046
S11300E082E08A8303C081E080937000F9018081FB
S11300F0803A19F0813A31F00AC0CE0101960E948B
S1130100D40208C0CE0107960E941D0203C081E0FC
S1130110809370008091700029960FB6F894DEBF2A
S11301200FBECDBFDF91CF910895CF9380917B0017
S1130130823001F52091600030E080917800909148
S11301407900019728173907A8F48091600083305B
S113015088F080916000E0917600F0917700E80FDC
S1130160F11D909174008081890F8093740081E067
S113017080937B002091600030E080917800909122
S1130180790001972817390701F580916000E09103
S11301907600F0917700E80FF11DC1E09081809125
S11301A07400981301C0C0E010927B001092730099
S11301B08FEF8093600010927400E0917100F091D1
S11301C07200309719F0099501C0C0E08C2FCF91CF
S11301D00895E5E7F0E05483438372836183808369
S11301E0803A19F0813A31F00AC087E591E00E9423
S11301F0CF0208C087E591E00E94440203C081E079
S113020080936F0080916F0008950F931F93CF9395
S1130210DF93EC018881803A19F0813A41F00EC0F5
S113022087E591E00E94CF02EDE0F3E00BC087E5A3
S113023091E00E944402E9E4F2E004C081E080938A
S11302406E002EC02091730030E04B815C81241736
S1130250350730F580916E00811122C089819A8121
S11302608C01020F131F0995F8018083E981FA813B
S113027080818A3569F081E080936E0010927B0062
S1130280109273008FEF809360001092740003C08B
S113029081E080937A00809173008F5F8093730074
S11302A080916E00DF91CF911F910F91089581E0AD
S11302B080937B0085E790E00E94050182E08093B3
S11302C07B00809160008F5F80936000089590931D
S11302D0720080937100089581E080936100089515
S11302E081E080937C000895CF93DF93CDB7DEB790
S11302F0C650D1400FB6F894DEBF0FBECDBF86E026
S1130300E8E6F0E0DE01A150BF4F01900D928A951E
S1130310E1F781EACB5FDE4F8883C550D14081E0AD
S1130320CA5FDE4F8883C650D14080E791E00E94C7
S113033067017894D12C00E0B12CCC24C3947E01C5
S113034087E3E80EF11C10E280917C008130A9F56E
S1130350809161008130C1F7B1100AC08CE691E050
S11303600E94CA02CE0181509F4F0E94D402BC2C2D
S11303708DEFD81691F082E08D1558F4E1E0F0E0AD
S1130380EC0FFD1FED0DF11D80810E9407031092FB
S11303906100D3948EEFD81210C08DE00E94070341
S11303A0FE0131961193EE15FF05E1F710927C00E2
S11303B00F2EFEEFDF2EF02D06C080917C00811100
S11303C0C3CF01110EC0CE018B5F9E4F0E94490026
S11303D04EEF50E0BE016F5F7F4F81EA0E94E9005B
S11303E00C2D0E949500B0CF1F920F920FB60F9262
S11303F011242F933F934F935F936F937F938F9326
S11304009F93AF93BF93EF93FF93E0917D00F0919F
S11304107E00309709F00995FF91EF91BF91AF915C
S11304209F918F917F916F915F914F913F912F9108
S11304300F900FBE0F901F901895FC0180818111C1
S113044006C087B38F7487BBBE9A6C9807C081308F
S113045029F487B3806B87BBBE986C9A8DB18F7774
S11304609181892B8DB96E9A9DB1828183709C7F15
S1130470982B9DB99EB18281282F26952695892F88
S11304808E7F822B8EB9089590937E0080937D0099
S113049008956F9902C0779BFECF8FB108951F9284
S11304A00F920FB60F9211242F933F934F935F93A4
S11304B06F937F938F939F93AF93BF93EF93FF9328
S11304C0E0918100F0918200309709F00995FF9145
S11304D0EF91BF91AF919F918F917F916F915F91B8
S11304E04F913F912F910F900FBE0F901F90189531
S11304F01F920F920FB60F9211242F933F934F9395
S11305005F936F937F938F939F93AF93BF93EF9377
S1130510FF93E0917F00F0918000309709F00995F6
S1130520FF91EF91BF91AF919F918F917F916F91C7
S11305305F914F913F912F910F900FBE0F901F909D
S113054018951F920F920FB60F9211242F933F9379
S11305504F935F936F937F938F939F93AF93BF93C7
S1130560EF93FF93E0918300F0918400309709F0BA
S11305700995FF91EF91BF91AF919F918F917F91D9
S11305806F915F914F913F912F910F900FBE0F90FC
S11305901F901895909384008093830008959093FE
S11305A08200809381000895FC01599A81818130F1
S11305B051F018F0823069F013C0539A858181306C
S11305C079F4569A0DC0549A8581813049F4579A2A
S11305D007C0539A549A8581813011F4569A579AD8
S11305E08AB1928194708B7F892B8AB980B592816C
S11305F09370990F2081292B9381892B8068948192
S1130600892B822B80BD10BC8FEC89B90895569933
S113061002C05D9BFECF8CB90895579902C05F9BC1
S10D0620FECF8CB10895F894FFCFCB
S111062AFF01000003000001000003000001B6
S9030000FC
