:100000000C942A000C9447000C9447000C94470071
:100010000C9447000C9447000C9447000C94470044
:100020000C9447000C9447000C9447000C94470034
:100030000C946E050C945B060C948E060C94C10611
:100040000C9447000C9447000C9447000C94470014
:100050000C94470011241FBECFE5D8E0DEBFCDBF12
:1000600010E0A0E6B0E0ECE2F2E102C005900D92F3
:10007000A637B107D9F710E0A6E7B0E001C01D929E
:10008000AD3AB107E1F70E94A0080C9414090C9452
:100090000000DF93CF93CDB7DEB781E08093770088
:1000A00085E890E00E942E0382E0809377008091A3
:1000B00061008F5F80936100CF91DF910895DF939E
:1000C000CF93CDB7DEB782E0809376008091600059
:1000D0008F5F80936000CF91DF910895DF93CF937E
:1000E000CDB7DEB76A970FB6F894DEBF0FBECDBFAF
:1000F0009C878B8719829E012E5F3F4F3A8B298BFD
:1001000085E690E09C8B8B8B96E09D8BEB89FC8940
:1001100000802B893C892F5F3F4F3C8B2B8BE989DB
:10012000FA89008229893A892F5F3F4F3A8B298BC0
:100130003D8931503D8B8D89882341F7FE013896EA
:10014000FF8BEE8B22E630E0398F288F33E03A8F39
:10015000E88DF98D0080288D398D2F5F3F4F398FC5
:10016000288FEE89FF8900822E893F892F5F3F4FBC
:100170003F8B2E8B3A8D31503A8F8A8D882341F7F1
:10018000EB85FC858181E82FF0E0F88BEF872F85E8
:1001900038892130310569F08F8598898230910541
:1001A00061F0EF85F889309759F41B8281E08887E8
:1001B00009C081E08B83188605C082E08B8302C072
:1001C00081E08983EB85FC858081282F30E03E87A4
:1001D0002D878D859E85803A910531F0ED85FE85D0
:1001E000E13AF10531F00AC0CE0102960E942A07D9
:1001F00007C0CE0108960E94A10502C081E0898354
:1002000089816A960FB6F894DEBF0FBECDBFCF913D
:10021000DF910895DF93CF9300D000D0CDB7DEB744
:100220008A8319828A81282F30E03C832B838B813B
:100230009C81803A910531F02B813C81213A310536
:1002400061F012C00E94D30780E090E00E94060790
:1002500080E090E00E94F40609C00E94100680E051
:1002600090E00E941D0602C081E0898389810F9081
:100270000F900F900F90CF91DF910895DF93CF9360
:100280000F92CDB7DEB7198280917700823021F5C9
:1002900080916100282F30E0809188009091890042
:1002A000019728173907C0F4809161008330A0F0CE
:1002B000209186003091870080916100882F90E026
:1002C000F901E80FF91F908180917A00890F8093DE
:1002D0007A0081E08093770080916100282F30E0E0
:1002E0008091880090918900019728173907D9F4E7
:1002F000209186003091870080916100882F90E0E6
:10030000F901E80FF91F908180917A00981711F098
:1003100081E089831092770010927C008FEF8093A8
:10032000610010927A0089810F90CF91DF9108953A
:10033000DF93CF93CDB7DEB780917600823021F581
:1003400080916000282F30E080918300909184009C
:1003500004972817390788F4209181003091820092
:1003600080916000882F90E0F901E80FF91F9081DB
:1003700080917900890F8093790081E080937600E5
:1003800080E890E00E94DD0180916000282F30E03D
:10039000809183009091840001972817390749F4D0
:1003A0001092760010927B008FEF80936000109285
:1003B000790080E0CF91DF910895DF93CF93CDB79F
:1003C000DEB72A970FB6F894DEBF0FBECDBF9B8372
:1003D0008A83198280917B00882309F05EC0EA81BC
:1003E000FB818081282F30E03D832C838C819D818F
:1003F000803A910531F0EC81FD81E13AF10561F03F
:1004000016C08FE590E00E94F40688EE97E0909386
:100410007E0080937D000DC08FE590E00E941D0658
:100420008FE296E090937E0080937D0002C081E091
:100430008983EA81FB8121813281EA81FB81838189
:1004400094810497F901E80FF91F8AE58083EA8116
:10045000FB8121813281EA81FB8183819481039731
:10046000D901A80FB91FEA81FB8183819481049788
:10047000892F99278C93EA81FB8121813281EA813E
:10048000FB81838194810297D901A80FB91FEA816A
:10049000FB818381948184508C93EA81FB8121814B
:1004A0003281EA81FB81838194810197F901E80F10
:1004B000F91F80917900808380917B00282F30E0A4
:1004C000EA81FB81838194812817390708F055C0A0
:1004D00080917B008330D0F460917D0070917E002C
:1004E000EA81FB8141815281EA81FB812381348150
:1004F00080917B00882F90E0820F931F0497FA0170
:10050000E80FF91F8081FB01099532C080917B00C3
:10051000282F30E0EA81FB8183819481019728179D
:10052000390799F440917D0050917E00EA81FB816A
:100530002181328180917B00882F90E0F901E80FC2
:10054000F91F8081FA01099513C040917D005091F7
:100550007E00EA81FB812181328180917B00882F9E
:1005600090E00397F901E80FF91F8081FA010995DE
:1005700080917B008F5F80937B008A819B8120E844
:1005800030E03F832E839987888735E03A87E88576
:10059000F9850080288539852F5F3F4F3987288767
:1005A000EE81FF8100822E813F812F5F3F4F3F838D
:1005B0002E833A8531503A878A85882341F789818D
:1005C0002A960FB6F894DEBF0FBECDBFCF91DF9154
:1005D0000895DF93CF93CDB7DEB728970FB6F89481
:1005E000DEBF0FBECDBF8A837C836B835E834D836A
:1005F00019828D819E8190938900809388008B81E0
:100600009C8190938700809386008A8180938500E7
:100610008A81282F30E038872F838F819885803A10
:10062000910531F02F813885213A310531F00AC02A
:1006300089E490E00E94060707C089E490E00E94E8
:100640001D0602C081E08983898128960FB6F8943F
:10065000DEBF0FBECDBFCF91DF9108950F931F93E3
:10066000DF93CF9300D000D000D0CDB7DEB79C830E
:100670008B831A821982EB81FC818081282F30E0E4
:100680003E832D838D819E81803A910531F0ED81ED
:10069000FE81E13AF10551F012C089E490E00E9438
:1006A000060788E098E09A8389830CC089E490E08B
:1006B0000E941D0687E496E09A83898303C081E047
:1006C00080937F0080917C00282F30E0EB81FC81BB
:1006D000838194812817390708F040C080917F00FA
:1006E0008823E1F5EB81FC812181328180917C00BE
:1006F000882F90E08901080F191FE981FA81099577
:10070000F8018083EB81FC810180F281E02D808102
:100710008A3569F081E080937F0010927700109213
:100720007C008FEF8093610010927A0003C081E01B
:1007300080937800A1E3B0E0EB81FC8121813281DC
:1007400080917C00882F90E0F901E80FF91F8081EB
:100750008C9380917C008F5F80937C0080917F00E0
:1007600026960FB6F894DEBF0FBECDBFCF91DF91B6
:100770001F910F910895DF93CF93CDB7DEB72997DF
:100780000FB6F894DEBF0FBECDBF9D838C831B8256
:100790001A821982EC81FD818081282F30E039870F
:1007A00028878885998581309105D1F028853985FC
:1007B000223031052CF488859985009761F01FC09F
:1007C000288539852230310581F0888599858330E7
:1007D000910581F014C08AE390E09A83898311C067
:1007E00087E390E09A8389830CC084E390E09A8346
:1007F000898307C081E390E09A83898302C081E006
:100800008B838B81882359F5EC81FD818281282F90
:1008100030E03F832E838E819F81009731F02E81BF
:100820003F812F3F310571F018C0E981FA81808145
:10083000982FEC81FD81818180958923E981FA815E
:1008400080830DC0E981FA819081EC81FD818181F5
:10085000892BE981FA81808302C081E08B838B81BF
:1008600029960FB6F894DEBF0FBECDBFCF91DF91B2
:100870000895DF93CF93CDB7DEB72A970FB6F894DC
:10088000DEBF0FBECDBF8C836D834E831B821A8269
:1008900019828C81282F30E03A87298789859A85AB
:1008A00081309105D1F029853A85223031052CF42B
:1008B00089859A85009761F01FC029853A85223085
:1008C000310581F089859A858330910581F014C0C6
:1008D0008BE390E09A83898311C088E390E09A8348
:1008E00089830CC085E390E09A83898307C082E303
:1008F00090E09A83898302C081E08B838B81882377
:1009000029F58E81282F30E038872F838F819885B5
:10091000009731F02F8138852F3F310561F014C0E9
:10092000E981FA818081982F8D8180958923E981E1
:10093000FA8180830BC0E981FA8190818D81892BB6
:10094000E981FA81808302C081E08B838B812A96C2
:100950000FB6F894DEBF0FBECDBFCF91DF910895E3
:10096000DF93CF93CDB7DEB727970FB6F894DEBFEE
:100970000FBECDBF8A836B835D834C8319828C81CC
:100980009D81009709F446C08A81282F30E03F837B
:100990002E838E819F8181309105F1F02E813F81E0
:1009A000223031052CF48E819F81009761F02FC099
:1009B0002E813F8122303105C1F08E819F818330AD
:1009C0009105E1F024C0E9E3F0E090818B81892377
:1009D000EC81FD81808320C0E6E3F0E090818B8193
:1009E0008923EC81FD81808317C0E3E3F0E09081EF
:1009F0008B818923EC81FD8180830EC0E0E3F0E0F0
:100A000090818B818923EC81FD81808305C081E009
:100A1000898302C081E08983898127960FB6F89483
:100A2000DEBF0FBECDBFCF91DF910895DF93CF938F
:100A300000D000D00F92CDB7DEB78A836B831982C6
:100A40008A81282F30E03D832C838C819D818130E9
:100A50009105F1F02C813D81223031052CF48C81FF
:100A60009D81009761F02FC02C813D81223031059E
:100A7000C1F08C819D8183309105E1F024C0ABE30E
:100A8000B0E0EBE3F0E090818B8189278C931DC06F
:100A9000A8E3B0E0E8E3F0E090818B8189278C93B4
:100AA00014C0A5E3B0E0E5E3F0E090818B818927F5
:100AB0008C930BC0A2E3B0E0E2E3F0E090818B8185
:100AC00089278C9302C081E0898389810F900F90E0
:100AD0000F900F900F90CF91DF9108951F920F927A
:100AE0000FB60F9211242F933F934F935F936F9301
:100AF0007F938F939F93AF93BF93EF93FF93DF9376
:100B0000CF93CDB7DEB780918A0090918B0000978C
:100B100029F0E0918A00F0918B000995CF91DF9147
:100B2000FF91EF91BF91AF919F918F917F916F91C5
:100B30005F914F913F912F910F900FBE0F901F909B
:100B40001895DF93CF9300D0CDB7DEB79A83898312
:100B5000E981FA8180818823B1F4A7E3B0E0E7E37B
:100B6000F0E080818F748C93A7E3B0E0E7E3F0E0DE
:100B7000808180648C93ADE2B0E0EDE2F0E08081B2
:100B80008F7E8C931AC0E981FA8180818130A9F42B
:100B9000A7E3B0E0E7E3F0E08081806B8C93A7E30C
:100BA000B0E0E7E3F0E080818F7B8C93ADE2B0E0D2
:100BB000EDE2F0E0808180618C93ADE2B0E0EDE2A7
:100BC000F0E08081982F9F77E981FA818181892BDC
:100BD0008C93ADE2B0E0EDE2F0E0808180648C9334
:100BE000ADE2B0E0EDE2F0E08081982F9C7FE981FA
:100BF000FA8182818370892B8C93AEE2B0E0EEE2C1
:100C0000F0E08081982F9E7FE981FA81828186952C
:100C10008695892B8C930F900F90CF91DF9108953B
:100C2000DF93CF93CDB7DEB7EDE2F0E01082EEE2D6
:100C3000F0E01082CF91DF910895DF93CF9300D041
:100C4000CDB7DEB79A83898389819A8190938B008F
:100C500080938A000F900F90CF91DF910895DF93DA
:100C6000CF930F92CDB7DEB78983EFE2F0E08981B1
:100C70008083EDE2F0E0808188232CF0EEE2F0E06A
:100C800080818823DCF70F90CF91DF910895DF9367
:100C9000CF93CDB7DEB7EDE2F0E0808188232CF072
:100CA000EEE2F0E080818823DCF7EFE2F0E0808183
:100CB000CF91DF9108951F920F920FB60F921124DA
:100CC0002F933F934F935F936F937F938F939F9354
:100CD000AF93BF93EF93FF93DF93CF93CDB7DEB77F
:100CE00080918E0090918F00009729F0E0918E0006
:100CF000F0918F000995CF91DF91FF91EF91BF9116
:100D0000AF919F918F917F916F915F914F913F91A3
:100D10002F910F900FBE0F901F9018951F920F925A
:100D20000FB60F9211242F933F934F935F936F93BE
:100D30007F938F939F93AF93BF93EF93FF93DF9333
:100D4000CF93CDB7DEB7809190009091910000973E
:100D500029F0E0919000F09191000995CF91DF91F9
:100D6000FF91EF91BF91AF919F918F917F916F9183
:100D70005F914F913F912F910F900FBE0F901F9059
:100D800018951F920F920FB60F9211242F933F9335
:100D90004F935F936F937F938F939F93AF93BF9383
:100DA000EF93FF93DF93CF93CDB7DEB780918C00A5
:100DB00090918D00009729F0E0918C00F0918D00CA
:100DC0000995CF91DF91FF91EF91BF91AF919F91E5
:100DD0008F917F916F915F914F913F912F910F90E4
:100DE0000FBE0F901F901895DF93CF9300D0CDB713
:100DF000DEB79A83898389819A8190938D0080934D
:100E00008C000F900F90CF91DF910895DF93CF93D7
:100E100000D0CDB7DEB79A83898389819A81909378
:100E20008F0080938E000F900F90CF91DF910895E7
:100E3000DF93CF9300D0CDB7DEB79A8389838981C2
:100E40009A8190939100809390000F900F90CF9192
:100E5000DF910895DF93CF9300D000D0CDB7DEB7F8
:100E60009A838983ABE2B0E0EBE2F0E080818260BC
:100E70008C93E981FA818181282F30E03C832B8398
:100E80008B819C8181309105F1F02B813C81223056
:100E9000310569F18B819C81009709F049C0AAE274
:100EA000B0E0EAE2F0E0808188608C93E981FA8129
:100EB00085818130E9F5AAE2B0E0EAE2F0E08081E4
:100EC00080648C9335C0AAE2B0E0EAE2F0E0808171
:100ED00080618C93E981FA818581813049F5AAE2AC
:100EE000B0E0EAE2F0E0808180688C9321C0AAE261
:100EF000B0E0EAE2F0E0808188608C93AAE2B0E0A2
:100F0000EAE2F0E0808180618C93E981FA81858159
:100F1000813071F4AAE2B0E0EAE2F0E0808180641E
:100F20008C93AAE2B0E0EAE2F0E0808180688C93E2
:100F3000AAE2B0E0EAE2F0E08081982F9B7FE981AD
:100F4000FA8182818470892B8C93A0E4B0E0E0E484
:100F5000F0E08081382FE981FA818081282FE981B2
:100F6000FA818281882F90E083709070880F991F9A
:100F7000822B982F9068E981FA818381982BE981EF
:100F8000FA818481892B832B8C93E0E4F0E010823A
:100F9000E9E2F0E08FEC80830F900F900F900F90BC
:100FA000CF91DF910895DF93CF93CDB7DEB7EBE21A
:100FB000F0E080E28083EAE2F0E01082E0E4F0E03A
:100FC00086E08083E9E2F0E01082CF91DF9108951E
:100FD000DF93CF930F92CDB7DEB78983EAE2F0E0DB
:100FE0008081882F90E080749070009749F4EBE244
:100FF000F0E08081882F90E0807290700097B9F3C4
:10100000ECE2F0E0898180830F90CF91DF91089529
:10101000DF93CF93CDB7DEB7EAE2F0E0808188239B
:101020002CF0EBE2F0E080818823DCF7ECE2F0E0EA
:101030008081CF91DF910895DF93CF9300D000D0CE
:10104000CDB7DEB79C838B831A82198210C08A8148
:10105000282F30E08B819C81FC01E20FF31F8081FF
:1010600089838A818F5F8A8389810E94E8078A81C8
:10107000282F30E08B819C81FC01E20FF31F8081DF
:10108000882329F70F900F900F900F90CF91DF9149
:1010900008950F931F93DF93CF9300D0CDB7DEB7A2
:1010A0009A83898380919200282F30E089819A81E8
:1010B000FC01E20FF31F8081833291F08091920056
:1010C000282F30E089819A818C01020F131F0E9422
:1010D0000808F8018083809192008F5F80939200CE
:1010E00080919200282F30E089819A81FC01E20FE3
:1010F000F31F10820F900F90CF91DF911F910F91EE
:1011000008950F931F93DF93CF93CDB7DEB78091F0
:101110009400082F10E00E940808F801EB56FF4FDA
:101120008083809193008F5F8093930080919400DF
:101130008F5F80939400CF91DF911F910F9108955D
:10114000DF93CF93CDB7DEB768970FB6F894DEBFC5
:101150000FBECDBF1982CE010296988B8F87E0E734
:10116000F0E0FA8BE98BF6E0FB8BE989FA890080E5
:1011700089899A8901969A8B898BEF85F8890082F3
:101180008F8598890196988B8F879B8991509B8B2F
:10119000EB89EE2351F781EA88871986CE010A96FA
:1011A0009D8B8C8BEBE6F0E0FF8BEE8BF5E0F88F00
:1011B000EE89FF8900808E899F8901969F8B8E8B97
:1011C000EC89FD8900828C899D8901969D8B8C8B91
:1011D000988D9150988FE88DEE2351F7CE010896A7
:1011E0000E946E0081E898E00E940607CE010296F8
:1011F0000E942A07789480919300883111F481E04D
:10120000898389818130B9F780919300883149F4CD
:10121000CE010A960E94DD01809193008F5F80933A
:0C12200093000E949801E7CFF894FFCFE4
:10122C00FFFF008000000003000001A195001800E2
:06123C00000101030000A7
:00000001FF
