:100000000C942A000C9447000C9447000C94470071
:100010000C9447000C9447000C9447000C94470044
:100020000C9447000C9447000C9447000C94470034
:100030000C94E4010C9441020C946A020C94930217
:100040000C9447000C9447000C9447000C94470014
:100050000C94470011241FBECFE5D8E0DEBFCDBF12
:1000600010E0A0E6B0E0EEE0F6E002C005900D92F0
:10007000A237B107D9F720E0A2E7B0E001C01D9296
:10008000AE39B207E1F70E949F010C9405030C946E
:10009000000082E080937B00809160008F5F8093FE
:1000A000600008951F93CF93DF93CDB7DEB72997F4
:1000B0000FB6F894DEBF0FBECDBF9C014FEF81EEAF
:1000C00094E0415080409040E1F700C0000086E09D
:1000D000E1E6F0E0DE01119601900D928A95E1F7DC
:1000E0001F8280E888871986F9019181913049F053
:1000F00018F0923051F00DC01A8281E08F8310E029
:1001000009C081E08A8310E005C082E08A8310E0A4
:1001100001C011E0F9018081803A19F0813A31F093
:100120000AC0CE0101960E94C60206C0CE01079603
:100130000E940D0201C011E0812F29960FB6F8949C
:10014000DEBF0FBECDBFDF91CF911F9108951F93EA
:10015000CF93DF93EC018091740081113BC08881C3
:10016000803A19F0813A69F018C089E490E00E9461
:10017000BC0289EF92E0909373008093720010E0CC
:100180000DC089E490E00E9436028BE392E09093E8
:1001900073008093720010E001C011E0E981FA81E0
:1001A0008B819C81E80FF91F34978AE580838B81CE
:1001B0009C81E981FA81E80FF91F339704979083B6
:1001C0008B819C81E981FA81E80FF91F3297845075
:1001D000808301C010E0E981FA818B819C81E80F66
:1001E000F91F319780917500808340917400842FAE
:1001F00090E02B813C818217930798F5433078F487
:1002000049815A81840F951F820F931FDC01149737
:10021000E0917200F09173008C9109951DC02150FE
:1002200031098217930761F429813A81D901A80F16
:10023000B91FE0917200F09173008C9109950CC088
:10024000A981BA818A0F9B1FDC011397E09172008C
:10025000F09173008C910995809174008F5F809369
:1002600074002FEF81EE94E0215080409040E1F740
:1002700000C0000085E0FE01A6E7B0E001900D920D
:100280008A95E1F7812FDF91CF911F910895809199
:100290007B00823001F52091600030E08091790090
:1002A00090917A0004972817390770F480916000C4
:1002B000E0917700F0917800E80FF11D90917500C2
:1002C0008081890F8093750081E080937B0086E7B1
:1002D00090E00E94A7002091600030E080917900BA
:1002E00090917A0001972817390749F410927B0002
:1002F000109274008FEF809360001092750080E080
:100300000895CF93DF93C0917C00D0E00E94FF025C
:10031000CA57DF4F8883E0917C00F0E0EA57FF4F37
:1003200080818ABB80917D008F5F80937D0080916A
:100330007C008F5F80937C00DF91CF910895CF93F5
:10034000DF93CDB7DEB72D970FB6F894DEBF0FBEA3
:10035000CDBF86E0E7E6F0E0DE01119601900D9258
:100360008A95E1F781EA8F83188685E0EDE6F0E073
:10037000DE01199601900D928A95E1F7CE0107965C
:100380000E945200CE0101960E94C60281E891E0CF
:100390000E94C102789490E011E080917D00883144
:1003A00011F09130D1F780917D00883149F4CE0170
:1003B00009960E94A70080917D008F5F80937D0049
:1003C0000E944701912FE9CF1F920F920FB60F9213
:1003D00011242F933F934F935F936F937F938F934A
:1003E0009F93AF93BF93EF93FF93E0917E00F091C3
:1003F0007F00309709F00995FF91EF91BF91AF9180
:100400009F918F917F916F915F914F913F912F912C
:100410000F900FBE0F901F901895FC0181E084BBD8
:100420008081811106C087B38F7487BBBE9A6C9898
:1004300007C0813029F487B3806B87BBBE986C9A64
:100440008DB18F779181892B8DB96E9A9DB1828103
:1004500083709C7F982B9DB99EB18281282F269511
:100460002695892F8E7F822B8EB9089590937F00D9
:1004700080937E0008956F9902C0779BFECF8FB95D
:1004800008951F920F920FB60F9211242F933F934E
:100490004F935F936F937F938F939F93AF93BF938C
:1004A000EF93FF93E0918200F0918300309709F081
:1004B0000995FF91EF91BF91AF919F918F917F919E
:1004C0006F915F914F913F912F910F900FBE0F90C1
:1004D0001F9018951F920F920FB60F9211242F9311
:1004E0003F934F935F936F937F938F939F93AF93BC
:1004F000BF93EF93FF93E0918000F09181003097DC
:1005000009F00995FF91EF91BF91AF919F918F9164
:100510007F916F915F914F913F912F910F900FBEFF
:100520000F901F9018951F920F920FB60F921124E3
:100530002F933F934F935F936F937F938F939F93EB
:10054000AF93BF93EF93FF93E0918400F091850008
:10055000309709F00995FF91EF91BF91AF919F916D
:100560008F917F916F915F914F913F912F910F905C
:100570000FBE0F901F901895909385008093840074
:10058000089590938300809382000895FC01599A06
:100590008181813051F018F0823069F013C0539A94
:1005A0008581813079F4569A0DC0549A85818130C5
:1005B00049F4579A07C0539A549A8581813011F4AF
:1005C000569A579A8AB1928194708B7F892B8AB9F7
:1005D00080B592819370990F2081292B9381892B6B
:1005E00080689481892B822B80BD10BC8FEC89B9E7
:1005F0000895569902C05D9BFECF8CB90895579916
:0E06000002C05F9BFECF8CB10895F894FFCF2F
:10060E00FF000003000001000103000001A18600AD
:02061E001800C2
:00000001FF
